{
  "_format": "hh-sol-artifact-1",
  "contractName": "Paywall",
  "sourceName": "contracts/Paywall.sol",
  "abi": [
    {
      "inputs": [
        {
          "internalType": "uint256",
          "name": "_lifetimeSubscriptionPrice",
          "type": "uint256"
        }
      ],
      "stateMutability": "nonpayable",
      "type": "constructor"
    },
    {
      "anonymous": false,
      "inputs": [
        {
          "indexed": true,
          "internalType": "bytes32",
          "name": "role",
          "type": "bytes32"
        },
        {
          "indexed": true,
          "internalType": "bytes32",
          "name": "previousAdminRole",
          "type": "bytes32"
        },
        {
          "indexed": true,
          "internalType": "bytes32",
          "name": "newAdminRole",
          "type": "bytes32"
        }
      ],
      "name": "RoleAdminChanged",
      "type": "event"
    },
    {
      "anonymous": false,
      "inputs": [
        {
          "indexed": true,
          "internalType": "bytes32",
          "name": "role",
          "type": "bytes32"
        },
        {
          "indexed": true,
          "internalType": "address",
          "name": "account",
          "type": "address"
        },
        {
          "indexed": true,
          "internalType": "address",
          "name": "sender",
          "type": "address"
        }
      ],
      "name": "RoleGranted",
      "type": "event"
    },
    {
      "anonymous": false,
      "inputs": [
        {
          "indexed": true,
          "internalType": "bytes32",
          "name": "role",
          "type": "bytes32"
        },
        {
          "indexed": true,
          "internalType": "address",
          "name": "account",
          "type": "address"
        },
        {
          "indexed": true,
          "internalType": "address",
          "name": "sender",
          "type": "address"
        }
      ],
      "name": "RoleRevoked",
      "type": "event"
    },
    {
      "inputs": [],
      "name": "DEFAULT_ADMIN_ROLE",
      "outputs": [
        {
          "internalType": "bytes32",
          "name": "",
          "type": "bytes32"
        }
      ],
      "stateMutability": "view",
      "type": "function"
    },
    {
      "inputs": [
        {
          "internalType": "uint256",
          "name": "_price",
          "type": "uint256"
        },
        {
          "internalType": "string",
          "name": "_url",
          "type": "string"
        }
      ],
      "name": "addNewArticle",
      "outputs": [],
      "stateMutability": "nonpayable",
      "type": "function"
    },
    {
      "inputs": [
        {
          "internalType": "uint256",
          "name": "",
          "type": "uint256"
        }
      ],
      "name": "articles",
      "outputs": [
        {
          "internalType": "uint256",
          "name": "price",
          "type": "uint256"
        },
        {
          "internalType": "string",
          "name": "url",
          "type": "string"
        }
      ],
      "stateMutability": "view",
      "type": "function"
    },
    {
      "inputs": [
        {
          "internalType": "uint256",
          "name": "_articleId",
          "type": "uint256"
        }
      ],
      "name": "buyArticle",
      "outputs": [],
      "stateMutability": "payable",
      "type": "function"
    },
    {
      "inputs": [],
      "name": "buyLifetimeSubscription",
      "outputs": [],
      "stateMutability": "payable",
      "type": "function"
    },
    {
      "inputs": [
        {
          "internalType": "address",
          "name": "",
          "type": "address"
        },
        {
          "internalType": "uint256",
          "name": "",
          "type": "uint256"
        }
      ],
      "name": "buyerToArticles",
      "outputs": [
        {
          "internalType": "uint256",
          "name": "",
          "type": "uint256"
        }
      ],
      "stateMutability": "view",
      "type": "function"
    },
    {
      "inputs": [
        {
          "internalType": "uint256",
          "name": "_articleId",
          "type": "uint256"
        }
      ],
      "name": "getArticle",
      "outputs": [
        {
          "components": [
            {
              "internalType": "uint256",
              "name": "price",
              "type": "uint256"
            },
            {
              "internalType": "string",
              "name": "url",
              "type": "string"
            }
          ],
          "internalType": "struct Paywall.Article",
          "name": "",
          "type": "tuple"
        }
      ],
      "stateMutability": "view",
      "type": "function"
    },
    {
      "inputs": [
        {
          "internalType": "bytes32",
          "name": "role",
          "type": "bytes32"
        }
      ],
      "name": "getRoleAdmin",
      "outputs": [
        {
          "internalType": "bytes32",
          "name": "",
          "type": "bytes32"
        }
      ],
      "stateMutability": "view",
      "type": "function"
    },
    {
      "inputs": [
        {
          "internalType": "address",
          "name": "_user",
          "type": "address"
        }
      ],
      "name": "getUserArticles",
      "outputs": [
        {
          "internalType": "uint256[]",
          "name": "",
          "type": "uint256[]"
        }
      ],
      "stateMutability": "view",
      "type": "function"
    },
    {
      "inputs": [
        {
          "internalType": "bytes32",
          "name": "role",
          "type": "bytes32"
        },
        {
          "internalType": "address",
          "name": "account",
          "type": "address"
        }
      ],
      "name": "grantRole",
      "outputs": [],
      "stateMutability": "nonpayable",
      "type": "function"
    },
    {
      "inputs": [
        {
          "internalType": "uint256",
          "name": "_articleId",
          "type": "uint256"
        },
        {
          "internalType": "address",
          "name": "_user",
          "type": "address"
        }
      ],
      "name": "hasAccessToArticle",
      "outputs": [
        {
          "internalType": "bool",
          "name": "",
          "type": "bool"
        }
      ],
      "stateMutability": "view",
      "type": "function"
    },
    {
      "inputs": [
        {
          "internalType": "address",
          "name": "_user",
          "type": "address"
        }
      ],
      "name": "hasLifetimeSubscription",
      "outputs": [
        {
          "internalType": "bool",
          "name": "",
          "type": "bool"
        }
      ],
      "stateMutability": "view",
      "type": "function"
    },
    {
      "inputs": [
        {
          "internalType": "bytes32",
          "name": "role",
          "type": "bytes32"
        },
        {
          "internalType": "address",
          "name": "account",
          "type": "address"
        }
      ],
      "name": "hasRole",
      "outputs": [
        {
          "internalType": "bool",
          "name": "",
          "type": "bool"
        }
      ],
      "stateMutability": "view",
      "type": "function"
    },
    {
      "inputs": [
        {
          "internalType": "address",
          "name": "",
          "type": "address"
        }
      ],
      "name": "lifetimeSubscribers",
      "outputs": [
        {
          "internalType": "bool",
          "name": "",
          "type": "bool"
        }
      ],
      "stateMutability": "view",
      "type": "function"
    },
    {
      "inputs": [],
      "name": "lifetimeSubscriptionPrice",
      "outputs": [
        {
          "internalType": "uint256",
          "name": "",
          "type": "uint256"
        }
      ],
      "stateMutability": "view",
      "type": "function"
    },
    {
      "inputs": [],
      "name": "nextArticleId",
      "outputs": [
        {
          "internalType": "uint256",
          "name": "",
          "type": "uint256"
        }
      ],
      "stateMutability": "view",
      "type": "function"
    },
    {
      "inputs": [
        {
          "internalType": "bytes32",
          "name": "role",
          "type": "bytes32"
        },
        {
          "internalType": "address",
          "name": "account",
          "type": "address"
        }
      ],
      "name": "renounceRole",
      "outputs": [],
      "stateMutability": "nonpayable",
      "type": "function"
    },
    {
      "inputs": [
        {
          "internalType": "bytes32",
          "name": "role",
          "type": "bytes32"
        },
        {
          "internalType": "address",
          "name": "account",
          "type": "address"
        }
      ],
      "name": "revokeRole",
      "outputs": [],
      "stateMutability": "nonpayable",
      "type": "function"
    },
    {
      "inputs": [
        {
          "internalType": "uint256",
          "name": "newPrice",
          "type": "uint256"
        }
      ],
      "name": "setLifetimeSubscriptionPrice",
      "outputs": [],
      "stateMutability": "nonpayable",
      "type": "function"
    },
    {
      "inputs": [
        {
          "internalType": "bytes4",
          "name": "interfaceId",
          "type": "bytes4"
        }
      ],
      "name": "supportsInterface",
      "outputs": [
        {
          "internalType": "bool",
          "name": "",
          "type": "bool"
        }
      ],
      "stateMutability": "view",
      "type": "function"
    }
  ],
  "bytecode": "0x60806040523480156200001157600080fd5b50604051620026d9380380620026d98339818101604052810190620000379190620001fd565b80600181905550620000536000801b336200005a60201b60201c565b506200022f565b6200006c82826200014b60201b60201c565b6200014757600160008084815260200190815260200160002060000160008373ffffffffffffffffffffffffffffffffffffffff1673ffffffffffffffffffffffffffffffffffffffff16815260200190815260200160002060006101000a81548160ff021916908315150217905550620000ec620001b560201b60201c565b73ffffffffffffffffffffffffffffffffffffffff168173ffffffffffffffffffffffffffffffffffffffff16837f2f8788117e7eff1d82e926ec794901d17c78024a50270940304540a733656f0d60405160405180910390a45b5050565b600080600084815260200190815260200160002060000160008373ffffffffffffffffffffffffffffffffffffffff1673ffffffffffffffffffffffffffffffffffffffff16815260200190815260200160002060009054906101000a900460ff16905092915050565b600033905090565b600080fd5b6000819050919050565b620001d781620001c2565b8114620001e357600080fd5b50565b600081519050620001f781620001cc565b92915050565b600060208284031215620002165762000215620001bd565b5b60006200022684828501620001e6565b91505092915050565b61249a806200023f6000396000f3fe60806040526004361061011f5760003560e01c806385c3ab54116100a0578063bde4755c11610064578063bde4755c14610405578063cb9b20e51461042e578063d547741f1461046b578063da0bef0814610494578063edcfafe6146104bd5761011f565b806385c3ab54146102f857806391d1485414610323578063a217fddf14610360578063a244ccc01461038b578063bd85d867146103c85761011f565b806336568abe116100e757806336568abe146101ed57806336b12937146102165780634d37dabc146102415780635491d52a1461027e578063568d8581146102bb5761011f565b806301ffc9a7146101245780631cc4baa814610161578063248a9ca31461017d5780632f2ff15d146101ba57806333c3ba8a146101e3575b600080fd5b34801561013057600080fd5b5061014b600480360381019061014691906114c3565b6104fb565b604051610158919061150b565b60405180910390f35b61017b6004803603810190610176919061155c565b610575565b005b34801561018957600080fd5b506101a4600480360381019061019f91906115bf565b61072a565b6040516101b191906115fb565b60405180910390f35b3480156101c657600080fd5b506101e160048036038101906101dc9190611674565b610749565b005b6101eb61076a565b005b3480156101f957600080fd5b50610214600480360381019061020f9190611674565b610895565b005b34801561022257600080fd5b5061022b610918565b60405161023891906116c3565b60405180910390f35b34801561024d57600080fd5b50610268600480360381019061026391906116de565b61091e565b604051610275919061150b565b60405180910390f35b34801561028a57600080fd5b506102a560048036038101906102a091906116de565b610974565b6040516102b2919061150b565b60405180910390f35b3480156102c757600080fd5b506102e260048036038101906102dd919061170b565b610994565b6040516102ef91906116c3565b60405180910390f35b34801561030457600080fd5b5061030d6109c5565b60405161031a91906116c3565b60405180910390f35b34801561032f57600080fd5b5061034a60048036038101906103459190611674565b6109cb565b604051610357919061150b565b60405180910390f35b34801561036c57600080fd5b50610375610a35565b60405161038291906115fb565b60405180910390f35b34801561039757600080fd5b506103b260048036038101906103ad919061174b565b610a3c565b6040516103bf919061150b565b60405180910390f35b3480156103d457600080fd5b506103ef60048036038101906103ea919061155c565b610bb7565b6040516103fc9190611867565b60405180910390f35b34801561041157600080fd5b5061042c600480360381019061042791906119be565b610cc5565b005b34801561043a57600080fd5b50610455600480360381019061045091906116de565b610d42565b6040516104629190611ac9565b60405180910390f35b34801561047757600080fd5b50610492600480360381019061048d9190611674565b610e23565b005b3480156104a057600080fd5b506104bb60048036038101906104b6919061155c565b610e44565b005b3480156104c957600080fd5b506104e460048036038101906104df919061155c565b610e5c565b6040516104f2929190611b35565b60405180910390f35b60007f7965db0b000000000000000000000000000000000000000000000000000000007bffffffffffffffffffffffffffffffffffffffffffffffffffffffff1916827bffffffffffffffffffffffffffffffffffffffffffffffffffffffff1916148061056e575061056d82610f08565b5b9050919050565b600060046000838152602001908152602001600020604051806040016040529081600082015481526020016001820180546105af90611b94565b80601f01602080910402602001604051908101604052809291908181526020018280546105db90611b94565b80156106285780601f106105fd57610100808354040283529160200191610628565b820191906000526020600020905b81548152906001019060200180831161060b57829003601f168201915b5050505050815250509050600081600001510361067a576040517f08c379a000000000000000000000000000000000000000000000000000000000815260040161067190611c11565b60405180910390fd5b806000015134146106c0576040517f08c379a00000000000000000000000000000000000000000000000000000000081526004016106b790611c7d565b60405180910390fd5b600560003373ffffffffffffffffffffffffffffffffffffffff1673ffffffffffffffffffffffffffffffffffffffff1681526020019081526020016000208290806001815401808255809150506001900390600052602060002001600090919091909150555050565b6000806000838152602001908152602001600020600101549050919050565b6107528261072a565b61075b81610f72565b6107658383610f86565b505050565b60015434146107ae576040517f08c379a00000000000000000000000000000000000000000000000000000000081526004016107a590611c7d565b60405180910390fd5b600260003373ffffffffffffffffffffffffffffffffffffffff1673ffffffffffffffffffffffffffffffffffffffff16815260200190815260200160002060009054906101000a900460ff161561083b576040517f08c379a000000000000000000000000000000000000000000000000000000000815260040161083290611ce9565b60405180910390fd5b6001600260003373ffffffffffffffffffffffffffffffffffffffff1673ffffffffffffffffffffffffffffffffffffffff16815260200190815260200160002060006101000a81548160ff021916908315150217905550565b61089d611066565b73ffffffffffffffffffffffffffffffffffffffff168173ffffffffffffffffffffffffffffffffffffffff161461090a576040517f08c379a000000000000000000000000000000000000000000000000000000000815260040161090190611d7b565b60405180910390fd5b610914828261106e565b5050565b60015481565b6000600260008373ffffffffffffffffffffffffffffffffffffffff1673ffffffffffffffffffffffffffffffffffffffff16815260200190815260200160002060009054906101000a900460ff169050919050565b60026020528060005260406000206000915054906101000a900460ff1681565b600560205281600052604060002081815481106109b057600080fd5b90600052602060002001600091509150505481565b60035481565b600080600084815260200190815260200160002060000160008373ffffffffffffffffffffffffffffffffffffffff1673ffffffffffffffffffffffffffffffffffffffff16815260200190815260200160002060009054906101000a900460ff16905092915050565b6000801b81565b6000600354831115610a83576040517f08c379a0000000000000000000000000000000000000000000000000000000008152600401610a7a90611de7565b60405180910390fd5b6000600560008473ffffffffffffffffffffffffffffffffffffffff1673ffffffffffffffffffffffffffffffffffffffff168152602001908152602001600020805480602002602001604051908101604052809291908181526020018280548015610b0e57602002820191906000526020600020905b815481526020019060010190808311610afa575b5050505050905060008151905060008103610b5e576040517f08c379a0000000000000000000000000000000000000000000000000000000008152600401610b5590611e79565b60405180910390fd5b60005b81811015610ba95785838281518110610b7d57610b7c611e99565b5b602002602001015103610b965760019350505050610bb1565b8080610ba190611ef7565b915050610b61565b506000925050505b92915050565b610bbf61143d565b600354821115610c04576040517f08c379a0000000000000000000000000000000000000000000000000000000008152600401610bfb90611f8b565b60405180910390fd5b6004600083815260200190815260200160002060405180604001604052908160008201548152602001600182018054610c3c90611b94565b80601f0160208091040260200160405190810160405280929190818152602001828054610c6890611b94565b8015610cb55780601f10610c8a57610100808354040283529160200191610cb5565b820191906000526020600020905b815481529060010190602001808311610c9857829003601f168201915b5050505050815250509050919050565b6000801b610cd281610f72565b600060405180604001604052808581526020018481525090506000600360008154610cfc90611ef7565b91905081905590508160046000838152602001908152602001600020600082015181600001556020820151816001019081610d379190612157565b509050505050505050565b60606000600560008473ffffffffffffffffffffffffffffffffffffffff1673ffffffffffffffffffffffffffffffffffffffff168152602001908152602001600020805480602002602001604051908101604052809291908181526020018280548015610dcf57602002820191906000526020600020905b815481526020019060010190808311610dbb575b505050505090506000815103610e1a576040517f08c379a0000000000000000000000000000000000000000000000000000000008152600401610e1190611e79565b60405180910390fd5b80915050919050565b610e2c8261072a565b610e3581610f72565b610e3f838361106e565b505050565b6000801b610e5181610f72565b816001819055505050565b6004602052806000526040600020600091509050806000015490806001018054610e8590611b94565b80601f0160208091040260200160405190810160405280929190818152602001828054610eb190611b94565b8015610efe5780601f10610ed357610100808354040283529160200191610efe565b820191906000526020600020905b815481529060010190602001808311610ee157829003601f168201915b5050505050905082565b60007f01ffc9a7000000000000000000000000000000000000000000000000000000007bffffffffffffffffffffffffffffffffffffffffffffffffffffffff1916827bffffffffffffffffffffffffffffffffffffffffffffffffffffffff1916149050919050565b610f8381610f7e611066565b61114f565b50565b610f9082826109cb565b61106257600160008084815260200190815260200160002060000160008373ffffffffffffffffffffffffffffffffffffffff1673ffffffffffffffffffffffffffffffffffffffff16815260200190815260200160002060006101000a81548160ff021916908315150217905550611007611066565b73ffffffffffffffffffffffffffffffffffffffff168173ffffffffffffffffffffffffffffffffffffffff16837f2f8788117e7eff1d82e926ec794901d17c78024a50270940304540a733656f0d60405160405180910390a45b5050565b600033905090565b61107882826109cb565b1561114b57600080600084815260200190815260200160002060000160008373ffffffffffffffffffffffffffffffffffffffff1673ffffffffffffffffffffffffffffffffffffffff16815260200190815260200160002060006101000a81548160ff0219169083151502179055506110f0611066565b73ffffffffffffffffffffffffffffffffffffffff168173ffffffffffffffffffffffffffffffffffffffff16837ff6391f5c32d9c69d2a47ea670b442974b53935d1edc7fd64eb21e047a839171b60405160405180910390a45b5050565b61115982826109cb565b6111d057611166816111d4565b6111748360001c6020611201565b6040516020016111859291906122fd565b6040516020818303038152906040526040517f08c379a00000000000000000000000000000000000000000000000000000000081526004016111c79190612337565b60405180910390fd5b5050565b60606111fa8273ffffffffffffffffffffffffffffffffffffffff16601460ff16611201565b9050919050565b6060600060028360026112149190612359565b61121e919061239b565b67ffffffffffffffff81111561123757611236611893565b5b6040519080825280601f01601f1916602001820160405280156112695781602001600182028036833780820191505090505b5090507f3000000000000000000000000000000000000000000000000000000000000000816000815181106112a1576112a0611e99565b5b60200101907effffffffffffffffffffffffffffffffffffffffffffffffffffffffffffff1916908160001a9053507f78000000000000000000000000000000000000000000000000000000000000008160018151811061130557611304611e99565b5b60200101907effffffffffffffffffffffffffffffffffffffffffffffffffffffffffffff1916908160001a905350600060018460026113459190612359565b61134f919061239b565b90505b60018111156113ef577f3031323334353637383961626364656600000000000000000000000000000000600f86166010811061139157611390611e99565b5b1a60f81b8282815181106113a8576113a7611e99565b5b60200101907effffffffffffffffffffffffffffffffffffffffffffffffffffffffffffff1916908160001a905350600485901c9450806113e8906123cf565b9050611352565b5060008414611433576040517f08c379a000000000000000000000000000000000000000000000000000000000815260040161142a90612444565b60405180910390fd5b8091505092915050565b604051806040016040528060008152602001606081525090565b6000604051905090565b600080fd5b600080fd5b60007fffffffff0000000000000000000000000000000000000000000000000000000082169050919050565b6114a08161146b565b81146114ab57600080fd5b50565b6000813590506114bd81611497565b92915050565b6000602082840312156114d9576114d8611461565b5b60006114e7848285016114ae565b91505092915050565b60008115159050919050565b611505816114f0565b82525050565b600060208201905061152060008301846114fc565b92915050565b6000819050919050565b61153981611526565b811461154457600080fd5b50565b60008135905061155681611530565b92915050565b60006020828403121561157257611571611461565b5b600061158084828501611547565b91505092915050565b6000819050919050565b61159c81611589565b81146115a757600080fd5b50565b6000813590506115b981611593565b92915050565b6000602082840312156115d5576115d4611461565b5b60006115e3848285016115aa565b91505092915050565b6115f581611589565b82525050565b600060208201905061161060008301846115ec565b92915050565b600073ffffffffffffffffffffffffffffffffffffffff82169050919050565b600061164182611616565b9050919050565b61165181611636565b811461165c57600080fd5b50565b60008135905061166e81611648565b92915050565b6000806040838503121561168b5761168a611461565b5b6000611699858286016115aa565b92505060206116aa8582860161165f565b9150509250929050565b6116bd81611526565b82525050565b60006020820190506116d860008301846116b4565b92915050565b6000602082840312156116f4576116f3611461565b5b60006117028482850161165f565b91505092915050565b6000806040838503121561172257611721611461565b5b60006117308582860161165f565b925050602061174185828601611547565b9150509250929050565b6000806040838503121561176257611761611461565b5b600061177085828601611547565b92505060206117818582860161165f565b9150509250929050565b61179481611526565b82525050565b600081519050919050565b600082825260208201905092915050565b60005b838110156117d45780820151818401526020810190506117b9565b60008484015250505050565b6000601f19601f8301169050919050565b60006117fc8261179a565b61180681856117a5565b93506118168185602086016117b6565b61181f816117e0565b840191505092915050565b6000604083016000830151611842600086018261178b565b506020830151848203602086015261185a82826117f1565b9150508091505092915050565b60006020820190508181036000830152611881818461182a565b905092915050565b600080fd5b600080fd5b7f4e487b7100000000000000000000000000000000000000000000000000000000600052604160045260246000fd5b6118cb826117e0565b810181811067ffffffffffffffff821117156118ea576118e9611893565b5b80604052505050565b60006118fd611457565b905061190982826118c2565b919050565b600067ffffffffffffffff82111561192957611928611893565b5b611932826117e0565b9050602081019050919050565b82818337600083830152505050565b600061196161195c8461190e565b6118f3565b90508281526020810184848401111561197d5761197c61188e565b5b61198884828561193f565b509392505050565b600082601f8301126119a5576119a4611889565b5b81356119b584826020860161194e565b91505092915050565b600080604083850312156119d5576119d4611461565b5b60006119e385828601611547565b925050602083013567ffffffffffffffff811115611a0457611a03611466565b5b611a1085828601611990565b9150509250929050565b600081519050919050565b600082825260208201905092915050565b6000819050602082019050919050565b6000611a52838361178b565b60208301905092915050565b6000602082019050919050565b6000611a7682611a1a565b611a808185611a25565b9350611a8b83611a36565b8060005b83811015611abc578151611aa38882611a46565b9750611aae83611a5e565b925050600181019050611a8f565b5085935050505092915050565b60006020820190508181036000830152611ae38184611a6b565b905092915050565b600082825260208201905092915050565b6000611b078261179a565b611b118185611aeb565b9350611b218185602086016117b6565b611b2a816117e0565b840191505092915050565b6000604082019050611b4a60008301856116b4565b8181036020830152611b5c8184611afc565b90509392505050565b7f4e487b7100000000000000000000000000000000000000000000000000000000600052602260045260246000fd5b60006002820490506001821680611bac57607f821691505b602082108103611bbf57611bbe611b65565b5b50919050565b7f41727469636c6520646f6573206e6f7420657869737400000000000000000000600082015250565b6000611bfb601683611aeb565b9150611c0682611bc5565b602082019050919050565b60006020820190508181036000830152611c2a81611bee565b9050919050565b7f57726f6e6720616d6f756e740000000000000000000000000000000000000000600082015250565b6000611c67600c83611aeb565b9150611c7282611c31565b602082019050919050565b60006020820190508181036000830152611c9681611c5a565b9050919050565b7f416c726561647920737562736372696265640000000000000000000000000000600082015250565b6000611cd3601283611aeb565b9150611cde82611c9d565b602082019050919050565b60006020820190508181036000830152611d0281611cc6565b9050919050565b7f416363657373436f6e74726f6c3a2063616e206f6e6c792072656e6f756e636560008201527f20726f6c657320666f722073656c660000000000000000000000000000000000602082015250565b6000611d65602f83611aeb565b9150611d7082611d09565b604082019050919050565b60006020820190508181036000830152611d9481611d58565b9050919050565b7f57726f6e67204944000000000000000000000000000000000000000000000000600082015250565b6000611dd1600883611aeb565b9150611ddc82611d9b565b602082019050919050565b60006020820190508181036000830152611e0081611dc4565b9050919050565b7f546865207573657220646f6573206e6f7420686176652061636365737320746f60008201527f20616e792061727469636c657300000000000000000000000000000000000000602082015250565b6000611e63602d83611aeb565b9150611e6e82611e07565b604082019050919050565b60006020820190508181036000830152611e9281611e56565b9050919050565b7f4e487b7100000000000000000000000000000000000000000000000000000000600052603260045260246000fd5b7f4e487b7100000000000000000000000000000000000000000000000000000000600052601160045260246000fd5b6000611f0282611526565b91507fffffffffffffffffffffffffffffffffffffffffffffffffffffffffffffffff8203611f3457611f33611ec8565b5b600182019050919050565b7f496e76616c696420494400000000000000000000000000000000000000000000600082015250565b6000611f75600a83611aeb565b9150611f8082611f3f565b602082019050919050565b60006020820190508181036000830152611fa481611f68565b9050919050565b60008190508160005260206000209050919050565b60006020601f8301049050919050565b600082821b905092915050565b60006008830261200d7fffffffffffffffffffffffffffffffffffffffffffffffffffffffffffffffff82611fd0565b6120178683611fd0565b95508019841693508086168417925050509392505050565b6000819050919050565b600061205461204f61204a84611526565b61202f565b611526565b9050919050565b6000819050919050565b61206e83612039565b61208261207a8261205b565b848454611fdd565b825550505050565b600090565b61209761208a565b6120a2818484612065565b505050565b5b818110156120c6576120bb60008261208f565b6001810190506120a8565b5050565b601f82111561210b576120dc81611fab565b6120e584611fc0565b810160208510156120f4578190505b61210861210085611fc0565b8301826120a7565b50505b505050565b600082821c905092915050565b600061212e60001984600802612110565b1980831691505092915050565b6000612147838361211d565b9150826002028217905092915050565b6121608261179a565b67ffffffffffffffff81111561217957612178611893565b5b6121838254611b94565b61218e8282856120ca565b600060209050601f8311600181146121c157600084156121af578287015190505b6121b9858261213b565b865550612221565b601f1984166121cf86611fab565b60005b828110156121f7578489015182556001820191506020850194506020810190506121d2565b868310156122145784890151612210601f89168261211d565b8355505b6001600288020188555050505b505050505050565b600081905092915050565b7f416363657373436f6e74726f6c3a206163636f756e7420000000000000000000600082015250565b600061226a601783612229565b915061227582612234565b601782019050919050565b600061228b8261179a565b6122958185612229565b93506122a58185602086016117b6565b80840191505092915050565b7f206973206d697373696e6720726f6c6520000000000000000000000000000000600082015250565b60006122e7601183612229565b91506122f2826122b1565b601182019050919050565b60006123088261225d565b91506123148285612280565b915061231f826122da565b915061232b8284612280565b91508190509392505050565b600060208201905081810360008301526123518184611afc565b905092915050565b600061236482611526565b915061236f83611526565b925082820261237d81611526565b9150828204841483151761239457612393611ec8565b5b5092915050565b60006123a682611526565b91506123b183611526565b92508282019050808211156123c9576123c8611ec8565b5b92915050565b60006123da82611526565b9150600082036123ed576123ec611ec8565b5b600182039050919050565b7f537472696e67733a20686578206c656e67746820696e73756666696369656e74600082015250565b600061242e602083611aeb565b9150612439826123f8565b602082019050919050565b6000602082019050818103600083015261245d81612421565b905091905056fea264697066735822122021b9fd66910f751629b329fd18b0a8308b513f828589832c99552bdca524ffd464736f6c63430008120033",
  "linkReferences": {},
  "deployedLinkReferences": {}
}